{
  "_format": "hh-sol-artifact-1",
  "contractName": "Multisig",
  "sourceName": "contracts/Multisig.sol",
  "abi": [
    {
      "inputs": [
        {
          "internalType": "address[]",
          "name": "owners",
          "type": "address[]"
        },
        {
          "internalType": "uint256",
          "name": "requiredSignatures",
          "type": "uint256"
        }
      ],
      "stateMutability": "nonpayable",
      "type": "constructor"
    },
    {
      "anonymous": false,
      "inputs": [
        {
          "indexed": false,
          "internalType": "uint256",
          "name": "transactionId",
          "type": "uint256"
        },
        {
          "indexed": false,
          "internalType": "address",
          "name": "to",
          "type": "address"
        },
        {
          "indexed": false,
          "internalType": "uint256",
          "name": "value",
          "type": "uint256"
        },
        {
          "indexed": false,
          "internalType": "bytes",
          "name": "data",
          "type": "bytes"
        }
      ],
      "name": "TransactionCreated",
      "type": "event"
    },
    {
      "anonymous": false,
      "inputs": [
        {
          "indexed": false,
          "internalType": "uint256",
          "name": "transactionId",
          "type": "uint256"
        },
        {
          "indexed": false,
          "internalType": "address",
          "name": "executer",
          "type": "address"
        }
      ],
      "name": "TransactionExecuted",
      "type": "event"
    },
    {
      "anonymous": false,
      "inputs": [
        {
          "indexed": false,
          "internalType": "uint256",
          "name": "transactionId",
          "type": "uint256"
        },
        {
          "indexed": false,
          "internalType": "address",
          "name": "signer",
          "type": "address"
        }
      ],
      "name": "TransactionSigned",
      "type": "event"
    },
    {
      "inputs": [],
      "name": "getOwners",
      "outputs": [
        {
          "internalType": "address[]",
          "name": "",
          "type": "address[]"
        }
      ],
      "stateMutability": "view",
      "type": "function"
    },
    {
      "inputs": [],
      "name": "getRequiredSignatures",
      "outputs": [
        {
          "internalType": "uint256",
          "name": "",
          "type": "uint256"
        }
      ],
      "stateMutability": "view",
      "type": "function"
    },
    {
      "inputs": [
        {
          "internalType": "uint256",
          "name": "transactionId",
          "type": "uint256"
        }
      ],
      "name": "getTransaction",
      "outputs": [
        {
          "internalType": "address",
          "name": "",
          "type": "address"
        },
        {
          "internalType": "uint256",
          "name": "",
          "type": "uint256"
        },
        {
          "internalType": "bytes",
          "name": "",
          "type": "bytes"
        },
        {
          "internalType": "bool",
          "name": "",
          "type": "bool"
        },
        {
          "internalType": "uint256",
          "name": "",
          "type": "uint256"
        }
      ],
      "stateMutability": "view",
      "type": "function"
    },
    {
      "inputs": [
        {
          "internalType": "address",
          "name": "account",
          "type": "address"
        }
      ],
      "name": "isOwner",
      "outputs": [
        {
          "internalType": "bool",
          "name": "",
          "type": "bool"
        }
      ],
      "stateMutability": "view",
      "type": "function"
    },
    {
      "inputs": [
        {
          "internalType": "uint256",
          "name": "transactionId",
          "type": "uint256"
        }
      ],
      "name": "signTransaction",
      "outputs": [],
      "stateMutability": "nonpayable",
      "type": "function"
    },
    {
      "inputs": [
        {
          "internalType": "address",
          "name": "to",
          "type": "address"
        },
        {
          "internalType": "uint256",
          "name": "value",
          "type": "uint256"
        },
        {
          "internalType": "bytes",
          "name": "data",
          "type": "bytes"
        }
      ],
      "name": "submitTransaction",
      "outputs": [],
      "stateMutability": "nonpayable",
      "type": "function"
    },
    {
      "stateMutability": "payable",
      "type": "receive"
    }
  ],
  "bytecode": "0x60806040523480156200001157600080fd5b5060405162001ec538038062001ec58339818101604052810190620000379190620003d1565b60008251116200007e576040517f08c379a0000000000000000000000000000000000000000000000000000000008152600401620000759062000498565b60405180910390fd5b60008111801562000090575081518111155b620000d2576040517f08c379a0000000000000000000000000000000000000000000000000000000008152600401620000c99062000530565b60405180910390fd5b8160019080519060200190620000ea929190620000fa565b5080600081905550505062000552565b82805482825590600052602060002090810192821562000176579160200282015b82811115620001755782518260006101000a81548173ffffffffffffffffffffffffffffffffffffffff021916908373ffffffffffffffffffffffffffffffffffffffff160217905550916020019190600101906200011b565b5b50905062000185919062000189565b5090565b5b80821115620001a45760008160009055506001016200018a565b5090565b6000604051905090565b600080fd5b600080fd5b600080fd5b6000601f19601f8301169050919050565b7f4e487b7100000000000000000000000000000000000000000000000000000000600052604160045260246000fd5b6200020c82620001c1565b810181811067ffffffffffffffff821117156200022e576200022d620001d2565b5b80604052505050565b600062000243620001a8565b905062000251828262000201565b919050565b600067ffffffffffffffff821115620002745762000273620001d2565b5b602082029050602081019050919050565b600080fd5b600073ffffffffffffffffffffffffffffffffffffffff82169050919050565b6000620002b7826200028a565b9050919050565b620002c981620002aa565b8114620002d557600080fd5b50565b600081519050620002e981620002be565b92915050565b600062000306620003008462000256565b62000237565b905080838252602082019050602084028301858111156200032c576200032b62000285565b5b835b81811015620003595780620003448882620002d8565b8452602084019350506020810190506200032e565b5050509392505050565b600082601f8301126200037b576200037a620001bc565b5b81516200038d848260208601620002ef565b91505092915050565b6000819050919050565b620003ab8162000396565b8114620003b757600080fd5b50565b600081519050620003cb81620003a0565b92915050565b60008060408385031215620003eb57620003ea620001b2565b5b600083015167ffffffffffffffff8111156200040c576200040b620001b7565b5b6200041a8582860162000363565b92505060206200042d85828601620003ba565b9150509250929050565b600082825260208201905092915050565b7f4174206c65617374206f6e65206f776e65722072657175697265640000000000600082015250565b600062000480601b8362000437565b91506200048d8262000448565b602082019050919050565b60006020820190508181036000830152620004b38162000471565b9050919050565b7f496e76616c6964206e756d626572206f66207265717569726564207369676e6160008201527f7475726573000000000000000000000000000000000000000000000000000000602082015250565b60006200051860258362000437565b91506200052582620004ba565b604082019050919050565b600060208201905081810360008301526200054b8162000509565b9050919050565b61196380620005626000396000f3fe6080604052600436106100595760003560e01c80632f54bf6e1461006557806333ea3dc8146100a25780635d9ec210146100e3578063a0e67e2b1461010c578063c642747414610137578063ccd939981461016057610060565b3661006057005b600080fd5b34801561007157600080fd5b5061008c60048036038101906100879190610bf9565b61018b565b6040516100999190610c41565b60405180910390f35b3480156100ae57600080fd5b506100c960048036038101906100c49190610c92565b610233565b6040516100da959493929190610d6d565b60405180910390f35b3480156100ef57600080fd5b5061010a60048036038101906101059190610c92565b610391565b005b34801561011857600080fd5b506101216105d9565b60405161012e9190610e85565b60405180910390f35b34801561014357600080fd5b5061015e60048036038101906101599190610fdc565b610667565b005b34801561016c57600080fd5b5061017561086f565b604051610182919061104b565b60405180910390f35b600080600090505b600180549050811015610228578273ffffffffffffffffffffffffffffffffffffffff16600182815481106101cb576101ca611066565b5b9060005260206000200160009054906101000a900473ffffffffffffffffffffffffffffffffffffffff1673ffffffffffffffffffffffffffffffffffffffff160361021b57600191505061022e565b8080600101915050610193565b50600090505b919050565b60008060606000806002805490508610610282576040517f08c379a0000000000000000000000000000000000000000000000000000000008152600401610279906110f2565b60405180910390fd5b60006002878154811061029857610297611066565b5b906000526020600020906005020190508060000160009054906101000a900473ffffffffffffffffffffffffffffffffffffffff168160010154826002018360030160009054906101000a900460ff166102f185610878565b8280546102fd90611141565b80601f016020809104026020016040519081016040528092919081815260200182805461032990611141565b80156103765780601f1061034b57610100808354040283529160200191610376565b820191906000526020600020905b81548152906001019060200180831161035957829003601f168201915b50505050509250955095509550955095505091939590929450565b60028054905081106103d8576040517f08c379a00000000000000000000000000000000000000000000000000000000081526004016103cf906110f2565b60405180910390fd5b6000600282815481106103ee576103ed611066565b5b906000526020600020906005020190508060030160009054906101000a900460ff1615610450576040517f08c379a0000000000000000000000000000000000000000000000000000000008152600401610447906111be565b60405180910390fd5b6104593361018b565b610498576040517f08c379a000000000000000000000000000000000000000000000000000000000815260040161048f90611250565b60405180910390fd5b8060040160003373ffffffffffffffffffffffffffffffffffffffff1673ffffffffffffffffffffffffffffffffffffffff16815260200190815260200160002060009054906101000a900460ff1615610527576040517f08c379a000000000000000000000000000000000000000000000000000000000815260040161051e906112e2565b60405180910390fd5b60018160040160003373ffffffffffffffffffffffffffffffffffffffff1673ffffffffffffffffffffffffffffffffffffffff16815260200190815260200160002060006101000a81548160ff0219169083151502179055507f737f6609fa194738ed162051f994c6e9599a830846ea9d72d6501d79871e098182336040516105b2929190611302565b60405180910390a16000546105c682610878565b036105d5576105d482610947565b5b5050565b6060600180548060200260200160405190810160405280929190818152602001828054801561065d57602002820191906000526020600020905b8160009054906101000a900473ffffffffffffffffffffffffffffffffffffffff1673ffffffffffffffffffffffffffffffffffffffff1681526020019060010190808311610613575b5050505050905090565b6106703361018b565b6106af576040517f08c379a00000000000000000000000000000000000000000000000000000000081526004016106a690611377565b60405180910390fd5b600073ffffffffffffffffffffffffffffffffffffffff168373ffffffffffffffffffffffffffffffffffffffff160361071e576040517f08c379a0000000000000000000000000000000000000000000000000000000008152600401610715906113e3565b60405180910390fd5b6000821015610762576040517f08c379a00000000000000000000000000000000000000000000000000000000081526004016107599061144f565b60405180910390fd5b600060028054905090506002600181600181540180825580915050039060005260206000209050506000600282815481106107a05761079f611066565b5b90600052602060002090600502019050848160000160006101000a81548173ffffffffffffffffffffffffffffffffffffffff021916908373ffffffffffffffffffffffffffffffffffffffff1602179055508381600101819055508281600201908161080d919061161b565b5060008160030160006101000a81548160ff0219169083151502179055507f453e07a951b5abb44cc647534a150065e3a308fec0dc01fda6ca43a4984f835b8286868660405161086094939291906116ed565b60405180910390a15050505050565b60008054905090565b6000806000905060005b60018054905081101561093d57836004016000600183815481106108a9576108a8611066565b5b9060005260206000200160009054906101000a900473ffffffffffffffffffffffffffffffffffffffff1673ffffffffffffffffffffffffffffffffffffffff1673ffffffffffffffffffffffffffffffffffffffff16815260200190815260200160002060009054906101000a900460ff161561093057818061092c90611768565b9250505b8080600101915050610882565b5080915050919050565b600280549050811061098e576040517f08c379a0000000000000000000000000000000000000000000000000000000008152600401610985906110f2565b60405180910390fd5b6000600282815481106109a4576109a3611066565b5b906000526020600020906005020190508060030160009054906101000a900460ff1615610a06576040517f08c379a00000000000000000000000000000000000000000000000000000000081526004016109fd906111be565b60405180910390fd5b600054610a1282610878565b1015610a53576040517f08c379a0000000000000000000000000000000000000000000000000000000008152600401610a4a906117fc565b60405180910390fd5b60018160030160006101000a81548160ff02191690831515021790555060008160000160009054906101000a900473ffffffffffffffffffffffffffffffffffffffff1673ffffffffffffffffffffffffffffffffffffffff16826001015483600201604051610ac391906118aa565b60006040518083038185875af1925050503d8060008114610b00576040519150601f19603f3d011682016040523d82523d6000602084013e610b05565b606091505b5050905080610b49576040517f08c379a0000000000000000000000000000000000000000000000000000000008152600401610b409061190d565b60405180910390fd5b7fefc13bdcf58f184ea7cae26b499fb33b539e01d0197cea456f3ada289b8cf19b8333604051610b7a929190611302565b60405180910390a1505050565b6000604051905090565b600080fd5b600080fd5b600073ffffffffffffffffffffffffffffffffffffffff82169050919050565b6000610bc682610b9b565b9050919050565b610bd681610bbb565b8114610be157600080fd5b50565b600081359050610bf381610bcd565b92915050565b600060208284031215610c0f57610c0e610b91565b5b6000610c1d84828501610be4565b91505092915050565b60008115159050919050565b610c3b81610c26565b82525050565b6000602082019050610c566000830184610c32565b92915050565b6000819050919050565b610c6f81610c5c565b8114610c7a57600080fd5b50565b600081359050610c8c81610c66565b92915050565b600060208284031215610ca857610ca7610b91565b5b6000610cb684828501610c7d565b91505092915050565b610cc881610bbb565b82525050565b610cd781610c5c565b82525050565b600081519050919050565b600082825260208201905092915050565b60005b83811015610d17578082015181840152602081019050610cfc565b60008484015250505050565b6000601f19601f8301169050919050565b6000610d3f82610cdd565b610d498185610ce8565b9350610d59818560208601610cf9565b610d6281610d23565b840191505092915050565b600060a082019050610d826000830188610cbf565b610d8f6020830187610cce565b8181036040830152610da18186610d34565b9050610db06060830185610c32565b610dbd6080830184610cce565b9695505050505050565b600081519050919050565b600082825260208201905092915050565b6000819050602082019050919050565b610dfc81610bbb565b82525050565b6000610e0e8383610df3565b60208301905092915050565b6000602082019050919050565b6000610e3282610dc7565b610e3c8185610dd2565b9350610e4783610de3565b8060005b83811015610e78578151610e5f8882610e02565b9750610e6a83610e1a565b925050600181019050610e4b565b5085935050505092915050565b60006020820190508181036000830152610e9f8184610e27565b905092915050565b600080fd5b600080fd5b7f4e487b7100000000000000000000000000000000000000000000000000000000600052604160045260246000fd5b610ee982610d23565b810181811067ffffffffffffffff82111715610f0857610f07610eb1565b5b80604052505050565b6000610f1b610b87565b9050610f278282610ee0565b919050565b600067ffffffffffffffff821115610f4757610f46610eb1565b5b610f5082610d23565b9050602081019050919050565b82818337600083830152505050565b6000610f7f610f7a84610f2c565b610f11565b905082815260208101848484011115610f9b57610f9a610eac565b5b610fa6848285610f5d565b509392505050565b600082601f830112610fc357610fc2610ea7565b5b8135610fd3848260208601610f6c565b91505092915050565b600080600060608486031215610ff557610ff4610b91565b5b600061100386828701610be4565b935050602061101486828701610c7d565b925050604084013567ffffffffffffffff81111561103557611034610b96565b5b61104186828701610fae565b9150509250925092565b60006020820190506110606000830184610cce565b92915050565b7f4e487b7100000000000000000000000000000000000000000000000000000000600052603260045260246000fd5b600082825260208201905092915050565b7f496e76616c6964207472616e73616374696f6e20494400000000000000000000600082015250565b60006110dc601683611095565b91506110e7826110a6565b602082019050919050565b6000602082019050818103600083015261110b816110cf565b9050919050565b7f4e487b7100000000000000000000000000000000000000000000000000000000600052602260045260246000fd5b6000600282049050600182168061115957607f821691505b60208210810361116c5761116b611112565b5b50919050565b7f5472616e73616374696f6e20616c726561647920657865637574656400000000600082015250565b60006111a8601c83611095565b91506111b382611172565b602082019050919050565b600060208201905081810360008301526111d78161119b565b9050919050565b7f4f6e6c79206f776e6572732063616e207369676e207472616e73616374696f6e60008201527f7300000000000000000000000000000000000000000000000000000000000000602082015250565b600061123a602183611095565b9150611245826111de565b604082019050919050565b600060208201905081810360008301526112698161122d565b9050919050565b7f5472616e73616374696f6e20616c7265616479207369676e656420627920746860008201527f6973206f776e6572000000000000000000000000000000000000000000000000602082015250565b60006112cc602883611095565b91506112d782611270565b604082019050919050565b600060208201905081810360008301526112fb816112bf565b9050919050565b60006040820190506113176000830185610cce565b6113246020830184610cbf565b9392505050565b7f4e6f7420616e206f776e65722100000000000000000000000000000000000000600082015250565b6000611361600d83611095565b915061136c8261132b565b602082019050919050565b6000602082019050818103600083015261139081611354565b9050919050565b7f496e76616c69642064657374696e6174696f6e20616464726573730000000000600082015250565b60006113cd601b83611095565b91506113d882611397565b602082019050919050565b600060208201905081810360008301526113fc816113c0565b9050919050565b7f496e76616c69642076616c756500000000000000000000000000000000000000600082015250565b6000611439600d83611095565b915061144482611403565b602082019050919050565b600060208201905081810360008301526114688161142c565b9050919050565b60008190508160005260206000209050919050565b60006020601f8301049050919050565b600082821b905092915050565b6000600883026114d17fffffffffffffffffffffffffffffffffffffffffffffffffffffffffffffffff82611494565b6114db8683611494565b95508019841693508086168417925050509392505050565b6000819050919050565b600061151861151361150e84610c5c565b6114f3565b610c5c565b9050919050565b6000819050919050565b611532836114fd565b61154661153e8261151f565b8484546114a1565b825550505050565b600090565b61155b61154e565b611566818484611529565b505050565b5b8181101561158a5761157f600082611553565b60018101905061156c565b5050565b601f8211156115cf576115a08161146f565b6115a984611484565b810160208510156115b8578190505b6115cc6115c485611484565b83018261156b565b50505b505050565b600082821c905092915050565b60006115f2600019846008026115d4565b1980831691505092915050565b600061160b83836115e1565b9150826002028217905092915050565b61162482610cdd565b67ffffffffffffffff81111561163d5761163c610eb1565b5b6116478254611141565b61165282828561158e565b600060209050601f8311600181146116855760008415611673578287015190505b61167d85826115ff565b8655506116e5565b601f1984166116938661146f565b60005b828110156116bb57848901518255600182019150602085019450602081019050611696565b868310156116d857848901516116d4601f8916826115e1565b8355505b6001600288020188555050505b505050505050565b60006080820190506117026000830187610cce565b61170f6020830186610cbf565b61171c6040830185610cce565b818103606083015261172e8184610d34565b905095945050505050565b7f4e487b7100000000000000000000000000000000000000000000000000000000600052601160045260246000fd5b600061177382610c5c565b91507fffffffffffffffffffffffffffffffffffffffffffffffffffffffffffffffff82036117a5576117a4611739565b5b600182019050919050565b7f496e73756666696369656e742076616c6964207369676e617475726573000000600082015250565b60006117e6601d83611095565b91506117f1826117b0565b602082019050919050565b60006020820190508181036000830152611815816117d9565b9050919050565b600081905092915050565b6000815461183481611141565b61183e818661181c565b94506001821660008114611859576001811461186e576118a1565b60ff19831686528115158202860193506118a1565b6118778561146f565b60005b838110156118995781548189015260018201915060208101905061187a565b838801955050505b50505092915050565b60006118b68284611827565b915081905092915050565b7f5472616e73616374696f6e20657865637574696f6e206661696c656400000000600082015250565b60006118f7601c83611095565b9150611902826118c1565b602082019050919050565b60006020820190508181036000830152611926816118ea565b905091905056fea2646970667358221220a45eb07ccfc7770fc4dbe1caef5a5c1a19572feb2d5c2c16c2d9fb9ddfc70f7664736f6c63430008180033",
  "linkReferences": {},
  "deployedLinkReferences": {}
}